{
  "contractName": "Lottery",
  "abi": [
    {
      "constant": true,
      "inputs": [],
      "name": "answerForTest",
      "outputs": [
        {
          "name": "",
          "type": "bytes32"
        }
      ],
      "payable": false,
      "stateMutability": "view",
      "type": "function",
      "signature": "0x84f7e4f0"
    },
    {
      "constant": true,
      "inputs": [],
      "name": "owner",
      "outputs": [
        {
          "name": "",
          "type": "address"
        }
      ],
      "payable": false,
      "stateMutability": "view",
      "type": "function",
      "signature": "0x8da5cb5b"
    },
    {
      "inputs": [],
      "payable": false,
      "stateMutability": "nonpayable",
      "type": "constructor",
      "signature": "constructor"
    },
    {
      "anonymous": false,
      "inputs": [
        {
          "indexed": false,
          "name": "index",
          "type": "uint256"
        },
        {
          "indexed": false,
          "name": "bettor",
          "type": "address"
        },
        {
          "indexed": false,
          "name": "amount",
          "type": "uint256"
        },
        {
          "indexed": false,
          "name": "challenges",
          "type": "bytes1"
        },
        {
          "indexed": false,
          "name": "answerBlockNumber",
          "type": "uint256"
        }
      ],
      "name": "BET",
      "type": "event",
      "signature": "0x100791de9f40bf2d56ffa6dc5597d2fd0b2703ea70bc7548cd74c04f5d215ab7"
    },
    {
      "anonymous": false,
      "inputs": [
        {
          "indexed": false,
          "name": "index",
          "type": "uint256"
        },
        {
          "indexed": false,
          "name": "bettor",
          "type": "address"
        },
        {
          "indexed": false,
          "name": "amount",
          "type": "uint256"
        },
        {
          "indexed": false,
          "name": "challenges",
          "type": "bytes1"
        },
        {
          "indexed": false,
          "name": "answer",
          "type": "bytes1"
        },
        {
          "indexed": false,
          "name": "answerBlockNumber",
          "type": "uint256"
        }
      ],
      "name": "WIN",
      "type": "event",
      "signature": "0x8219079e2d6c1192fb0ff7f78e6faaf5528ad6687e69749205d87bd4b156912b"
    },
    {
      "anonymous": false,
      "inputs": [
        {
          "indexed": false,
          "name": "index",
          "type": "uint256"
        },
        {
          "indexed": false,
          "name": "bettor",
          "type": "address"
        },
        {
          "indexed": false,
          "name": "amount",
          "type": "uint256"
        },
        {
          "indexed": false,
          "name": "challenges",
          "type": "bytes1"
        },
        {
          "indexed": false,
          "name": "answer",
          "type": "bytes1"
        },
        {
          "indexed": false,
          "name": "answerBlockNumber",
          "type": "uint256"
        }
      ],
      "name": "FAIL",
      "type": "event",
      "signature": "0x3b19d607433249d2ebc766ae82ca3848e9c064f1febb5147bc6e5b21d0adebc5"
    },
    {
      "anonymous": false,
      "inputs": [
        {
          "indexed": false,
          "name": "index",
          "type": "uint256"
        },
        {
          "indexed": false,
          "name": "bettor",
          "type": "address"
        },
        {
          "indexed": false,
          "name": "amount",
          "type": "uint256"
        },
        {
          "indexed": false,
          "name": "challenges",
          "type": "bytes1"
        },
        {
          "indexed": false,
          "name": "answer",
          "type": "bytes1"
        },
        {
          "indexed": false,
          "name": "answerBlockNumber",
          "type": "uint256"
        }
      ],
      "name": "DRAW",
      "type": "event",
      "signature": "0x72ec2e949e4fad9380f9d5db3e2ed0e71cf22c51d8d66424508bdc761a3f4b0e"
    },
    {
      "anonymous": false,
      "inputs": [
        {
          "indexed": false,
          "name": "index",
          "type": "uint256"
        },
        {
          "indexed": false,
          "name": "bettor",
          "type": "address"
        },
        {
          "indexed": false,
          "name": "amount",
          "type": "uint256"
        },
        {
          "indexed": false,
          "name": "challenges",
          "type": "bytes1"
        },
        {
          "indexed": false,
          "name": "answerBlockNumber",
          "type": "uint256"
        }
      ],
      "name": "REFUND",
      "type": "event",
      "signature": "0x59c0185881271a0f53d43e6ab9310091408f9e0ff9ae2512613de800f26b8de4"
    },
    {
      "constant": true,
      "inputs": [],
      "name": "getPot",
      "outputs": [
        {
          "name": "pot",
          "type": "uint256"
        }
      ],
      "payable": false,
      "stateMutability": "view",
      "type": "function",
      "signature": "0x403c9fa8"
    },
    {
      "constant": false,
      "inputs": [
        {
          "name": "challenges",
          "type": "bytes1"
        }
      ],
      "name": "betAndDistribute",
      "outputs": [
        {
          "name": "result",
          "type": "bool"
        }
      ],
      "payable": true,
      "stateMutability": "payable",
      "type": "function",
      "signature": "0xe16ea857"
    },
    {
      "constant": false,
      "inputs": [
        {
          "name": "challenges",
          "type": "bytes1"
        }
      ],
      "name": "bet",
      "outputs": [
        {
          "name": "result",
          "type": "bool"
        }
      ],
      "payable": true,
      "stateMutability": "payable",
      "type": "function",
      "signature": "0xf4b46f5b"
    },
    {
      "constant": false,
      "inputs": [],
      "name": "distribute",
      "outputs": [],
      "payable": false,
      "stateMutability": "nonpayable",
      "type": "function",
      "signature": "0xe4fc6b6d"
    },
    {
      "constant": false,
      "inputs": [
        {
          "name": "answer",
          "type": "bytes32"
        }
      ],
      "name": "setAnswerForTest",
      "outputs": [
        {
          "name": "result",
          "type": "bool"
        }
      ],
      "payable": false,
      "stateMutability": "nonpayable",
      "type": "function",
      "signature": "0x7009fa36"
    },
    {
      "constant": true,
      "inputs": [
        {
          "name": "challenges",
          "type": "bytes1"
        },
        {
          "name": "answer",
          "type": "bytes32"
        }
      ],
      "name": "isMatch",
      "outputs": [
        {
          "name": "",
          "type": "uint8"
        }
      ],
      "payable": false,
      "stateMutability": "pure",
      "type": "function",
      "signature": "0x99a167d7"
    },
    {
      "constant": true,
      "inputs": [
        {
          "name": "index",
          "type": "uint256"
        }
      ],
      "name": "getBetInfo",
      "outputs": [
        {
          "name": "answerBlockNumber",
          "type": "uint256"
        },
        {
          "name": "bettor",
          "type": "address"
        },
        {
          "name": "challenges",
          "type": "bytes1"
        }
      ],
      "payable": false,
      "stateMutability": "view",
      "type": "function",
      "signature": "0x79141f80"
    }
  ],
  "bytecode": "0x60806040526001600260006101000a81548160ff02191690831515021790555034801561002b57600080fd5b50336000806101000a81548173ffffffffffffffffffffffffffffffffffffffff021916908373ffffffffffffffffffffffffffffffffffffffff16021790555061165d8061007b6000396000f3fe608060405260043610610099576000357c0100000000000000000000000000000000000000000000000000000000900463ffffffff168063403c9fa81461009e5780637009fa36146100c957806379141f801461011c57806384f7e4f0146101e95780638da5cb5b1461021457806399a167d71461026b578063e16ea857146102f4578063e4fc6b6d1461035c578063f4b46f5b14610373575b600080fd5b3480156100aa57600080fd5b506100b36103db565b6040518082815260200191505060405180910390f35b3480156100d557600080fd5b50610102600480360360208110156100ec57600080fd5b81019080803590602001909291905050506103e5565b604051808215151515815260200191505060405180910390f35b34801561012857600080fd5b506101556004803603602081101561013f57600080fd5b81019080803590602001909291905050506104e1565b604051808481526020018373ffffffffffffffffffffffffffffffffffffffff1673ffffffffffffffffffffffffffffffffffffffff168152602001827effffffffffffffffffffffffffffffffffffffffffffffffffffffffffffff19167effffffffffffffffffffffffffffffffffffffffffffffffffffffffffffff19168152602001935050505060405180910390f35b3480156101f557600080fd5b506101fe610606565b6040518082815260200191505060405180910390f35b34801561022057600080fd5b5061022961060c565b604051808273ffffffffffffffffffffffffffffffffffffffff1673ffffffffffffffffffffffffffffffffffffffff16815260200191505060405180910390f35b34801561027757600080fd5b506102d06004803603604081101561028e57600080fd5b8101908080357effffffffffffffffffffffffffffffffffffffffffffffffffffffffffffff1916906020019092919080359060200190929190505050610631565b604051808260028111156102e057fe5b60ff16815260200191505060405180910390f35b6103426004803603602081101561030a57600080fd5b8101908080357effffffffffffffffffffffffffffffffffffffffffffffffffffffffffffff1916906020019092919050505061097a565b604051808215151515815260200191505060405180910390f35b34801561036857600080fd5b50610371610997565b005b6103c16004803603602081101561038957600080fd5b8101908080357effffffffffffffffffffffffffffffffffffffffffffffffffffffffffffff191690602001909291905050506110f4565b604051808215151515815260200191505060405180910390f35b6000600154905090565b60008060009054906101000a900473ffffffffffffffffffffffffffffffffffffffff1673ffffffffffffffffffffffffffffffffffffffff163373ffffffffffffffffffffffffffffffffffffffff161415156104d1576040517f08c379a000000000000000000000000000000000000000000000000000000000815260040180806020018281038252602b8152602001807f4f6e6c79206f776e65722063616e207365742074686520616e7377657220666f81526020017f722074657374206d6f646500000000000000000000000000000000000000000081525060400191505060405180910390fd5b8160038190555060019050919050565b60008060006104ee6115d7565b6006600086815260200190815260200160002060606040519081016040529081600082015481526020016001820160009054906101000a900473ffffffffffffffffffffffffffffffffffffffff1673ffffffffffffffffffffffffffffffffffffffff1673ffffffffffffffffffffffffffffffffffffffff1681526020016001820160149054906101000a90047f0100000000000000000000000000000000000000000000000000000000000000027effffffffffffffffffffffffffffffffffffffffffffffffffffffffffffff19167effffffffffffffffffffffffffffffffffffffffffffffffffffffffffffff1916815250509050806000015193508060200151925080604001519150509193909250565b60035481565b6000809054906101000a900473ffffffffffffffffffffffffffffffffffffffff1681565b6000808390506000849050600084600060208110151561064d57fe5b1a7f0100000000000000000000000000000000000000000000000000000000000000029050600085600060208110151561068357fe5b1a7f01000000000000000000000000000000000000000000000000000000000000000290506004847effffffffffffffffffffffffffffffffffffffffffffffffffffffffffffff1916908060020a820491505093506004847effffffffffffffffffffffffffffffffffffffffffffffffffffffffffffff19169060020a0293506004827effffffffffffffffffffffffffffffffffffffffffffffffffffffffffffff1916908060020a820491505091506004827effffffffffffffffffffffffffffffffffffffffffffffffffffffffffffff19169060020a0291506004837effffffffffffffffffffffffffffffffffffffffffffffffffffffffffffff19169060020a0292506004837effffffffffffffffffffffffffffffffffffffffffffffffffffffffffffff1916908060020a820491505092506004817effffffffffffffffffffffffffffffffffffffffffffffffffffffffffffff19169060020a0290506004817effffffffffffffffffffffffffffffffffffffffffffffffffffffffffffff1916908060020a82049150509050837effffffffffffffffffffffffffffffffffffffffffffffffffffffffffffff1916827effffffffffffffffffffffffffffffffffffffffffffffffffffffffffffff19161480156108b25750827effffffffffffffffffffffffffffffffffffffffffffffffffffffffffffff1916817effffffffffffffffffffffffffffffffffffffffffffffffffffffffffffff1916145b156108c4576001945050505050610974565b837effffffffffffffffffffffffffffffffffffffffffffffffffffffffffffff1916827effffffffffffffffffffffffffffffffffffffffffffffffffffffffffffff191614806109595750827effffffffffffffffffffffffffffffffffffffffffffffffffffffffffffff1916817effffffffffffffffffffffffffffffffffffffffffffffffffffffffffffff1916145b1561096b576002945050505050610974565b60009450505050505b92915050565b6000610985826110f4565b5061098e610997565b60019050919050565b6000806109a26115d7565b60008060055494505b6004548510156110e6576006600086815260200190815260200160002060606040519081016040529081600082015481526020016001820160009054906101000a900473ffffffffffffffffffffffffffffffffffffffff1673ffffffffffffffffffffffffffffffffffffffff1673ffffffffffffffffffffffffffffffffffffffff1681526020016001820160149054906101000a90047f0100000000000000000000000000000000000000000000000000000000000000027effffffffffffffffffffffffffffffffffffffffffffffffffffffffffffff19167effffffffffffffffffffffffffffffffffffffffffffffffffffffffffffff1916815250509250610abd83600001516112c9565b915060006002811115610acc57fe5b826002811115610ad857fe5b1415610fa2576000610aed846000015161131d565b9050610afd846040015182610631565b915060016002811115610b0c57fe5b826002811115610b1857fe5b1415610c9257610b3784602001516611c37937e0800060015401611345565b945060006001819055507f8219079e2d6c1192fb0ff7f78e6faaf5528ad6687e69749205d87bd4b156912b868560200151878760400151856000602081101515610b7d57fe5b1a7f0100000000000000000000000000000000000000000000000000000000000000028960000151604051808781526020018673ffffffffffffffffffffffffffffffffffffffff1673ffffffffffffffffffffffffffffffffffffffff168152602001858152602001847effffffffffffffffffffffffffffffffffffffffffffffffffffffffffffff19167effffffffffffffffffffffffffffffffffffffffffffffffffffffffffffff19168152602001837effffffffffffffffffffffffffffffffffffffffffffffffffffffffffffff19167effffffffffffffffffffffffffffffffffffffffffffffffffffffffffffff19168152602001828152602001965050505050505060405180910390a15b60006002811115610c9f57fe5b826002811115610cab57fe5b1415610e1a576611c37937e080006001600082825401925050819055507f3b19d607433249d2ebc766ae82ca3848e9c064f1febb5147bc6e5b21d0adebc586856020015160008760400151856000602081101515610d0557fe5b1a7f0100000000000000000000000000000000000000000000000000000000000000028960000151604051808781526020018673ffffffffffffffffffffffffffffffffffffffff1673ffffffffffffffffffffffffffffffffffffffff168152602001858152602001847effffffffffffffffffffffffffffffffffffffffffffffffffffffffffffff19167effffffffffffffffffffffffffffffffffffffffffffffffffffffffffffff19168152602001837effffffffffffffffffffffffffffffffffffffffffffffffffffffffffffff19167effffffffffffffffffffffffffffffffffffffffffffffffffffffffffffff19168152602001828152602001965050505050505060405180910390a15b600280811115610e2657fe5b826002811115610e3257fe5b1415610fa057610e4d84602001516611c37937e08000611345565b94507f8219079e2d6c1192fb0ff7f78e6faaf5528ad6687e69749205d87bd4b156912b868560200151878760400151856000602081101515610e8b57fe5b1a7f0100000000000000000000000000000000000000000000000000000000000000028960000151604051808781526020018673ffffffffffffffffffffffffffffffffffffffff1673ffffffffffffffffffffffffffffffffffffffff168152602001858152602001847effffffffffffffffffffffffffffffffffffffffffffffffffffffffffffff19167effffffffffffffffffffffffffffffffffffffffffffffffffffffffffffff19168152602001837effffffffffffffffffffffffffffffffffffffffffffffffffffffffffffff19167effffffffffffffffffffffffffffffffffffffffffffffffffffffffffffff19168152602001828152602001965050505050505060405180910390a15b505b60016002811115610faf57fe5b826002811115610fbb57fe5b1415610fc6576110e6565b600280811115610fd257fe5b826002811115610fde57fe5b14156110cf57610ff983602001516611c37937e08000611345565b93507f59c0185881271a0f53d43e6ab9310091408f9e0ff9ae2512613de800f26b8de48584602001518686604001518760000151604051808681526020018573ffffffffffffffffffffffffffffffffffffffff1673ffffffffffffffffffffffffffffffffffffffff168152602001848152602001837effffffffffffffffffffffffffffffffffffffffffffffffffffffffffffff19167effffffffffffffffffffffffffffffffffffffffffffffffffffffffffffff191681526020018281526020019550505050505060405180910390a15b6110d88561140d565b5084806001019550506109ab565b846005819055505050505050565b60006611c37937e0800034141515611174576040517f08c379a000000000000000000000000000000000000000000000000000000000815260040180806020018281038252600e8152602001807f4e6f7420656e6f7567682045544800000000000000000000000000000000000081525060200191505060405180910390fd5b61117d82611471565b15156111f1576040517f08c379a000000000000000000000000000000000000000000000000000000000815260040180806020018281038252601a8152602001807f4661696c20746f206164642061206e65772042657420496e666f00000000000081525060200191505060405180910390fd5b7f100791de9f40bf2d56ffa6dc5597d2fd0b2703ea70bc7548cd74c04f5d215ab760016004540333348560034301604051808681526020018573ffffffffffffffffffffffffffffffffffffffff1673ffffffffffffffffffffffffffffffffffffffff168152602001848152602001837effffffffffffffffffffffffffffffffffffffffffffffffffffffffffffff19167effffffffffffffffffffffffffffffffffffffffffffffffffffffffffffff191681526020018281526020019550505050505060405180910390a160019050919050565b600081431180156112dd5750816101000143105b156112eb5760009050611318565b81431115156112fd5760019050611318565b6101008201431015156113135760029050611318565b600290505b919050565b6000600260009054906101000a900460ff1661133b5760035461133e565b81405b9050919050565b60008060009050600081840390508473ffffffffffffffffffffffffffffffffffffffff166108fc829081150290604051600060405180830381858888f19350505050158015611399573d6000803e3d6000fd5b506000809054906101000a900473ffffffffffffffffffffffffffffffffffffffff1673ffffffffffffffffffffffffffffffffffffffff166108fc839081150290604051600060405180830381858888f19350505050158015611401573d6000803e3d6000fd5b50809250505092915050565b6000600660008381526020019081526020016000206000808201600090556001820160006101000a81549073ffffffffffffffffffffffffffffffffffffffff02191690556001820160146101000a81549060ff0219169055505060019050919050565b600061147b6115d7565b33816020019073ffffffffffffffffffffffffffffffffffffffff16908173ffffffffffffffffffffffffffffffffffffffff1681525050600343018160000181815250508281604001907effffffffffffffffffffffffffffffffffffffffffffffffffffffffffffff191690817effffffffffffffffffffffffffffffffffffffffffffffffffffffffffffff191681525050806006600060045481526020019081526020016000206000820151816000015560208201518160010160006101000a81548173ffffffffffffffffffffffffffffffffffffffff021916908373ffffffffffffffffffffffffffffffffffffffff16021790555060408201518160010160146101000a81548160ff02191690837f0100000000000000000000000000000000000000000000000000000000000000900402179055509050506004600081548092919060010191905055506001915050919050565b60606040519081016040528060008152602001600073ffffffffffffffffffffffffffffffffffffffff16815260200160007effffffffffffffffffffffffffffffffffffffffffffffffffffffffffffff19168152509056fea165627a7a723058202159cedddceb155956cf9b9d1ef76f2c7e0761bd50236d2d87a91bd747558d460029",
  "source": "// SPDX-License-Identifier: MIT\npragma solidity >=0.4.21 <0.7.0;\n\ncontract Lottery {\n\n    struct BetInfo{\n        //맞추려는 정답 블록\n        uint256 answerBlockNumber;\n        //정답을 맞춘경우 돈을 받는사람 반드시 payable 이있어야 돈을 보낼수있다\n        address payable bettor;\n       \n        //맞추려는 블록해쉬 정답 값\n         byte challenges;\n    }\n\n\n    address payable public owner;\n\n\n     //  도박에 받을 돈\n    uint256 private _pot;\n    \n\n\n    bool private mode =true ; //false == test mode ,true == real block hash use;\n    bytes32 public answerForTest;\n\n\n    // 도박에 사용되는 고정된 값\n    uint256 constant internal BET_AMOUNT = 5000000000000000;\n    // 몇번째 블록에있는 값을 확인할 것인지\n    uint256 constant internal BET_BLOCK_INTERVAL =3;\n    // 확인가능한 블록수\n    uint256 constant internal BLOCK_LIMIT=256;\n\n    enum BlockStatus {checkable,NotRevealed,BlockLimitPassed}\n    enum BettingResult {Fail,Win,Draw}\n    // 블록 선형 큐 \n    uint256 private _tail;\n    uint256 private _head;\n    mapping(uint256=>BetInfo) private _bets;\n\n\n    constructor() public{\n        owner=msg.sender;\n    }\n\n// event log\n    event BET(uint256 index, address bettor, uint256 amount, byte challenges, uint256 answerBlockNumber);\n  event WIN(uint256 index, address bettor, uint256 amount, byte challenges,byte answer, uint256 answerBlockNumber);\n  event FAIL(uint256 index, address bettor, uint256 amount, byte challenges,byte answer, uint256 answerBlockNumber);\n  event DRAW(uint256 index, address bettor, uint256 amount, byte challenges,byte answer, uint256 answerBlockNumber);\n  event REFUND(uint256 index, address bettor, uint256 amount, byte challenges, uint256 answerBlockNumber);\n// 스마트 컨트랙트에 들어있는 변수를가져오려면 view가 들어가야한다\n// 해당 값을 불러오는  getter\n    function getPot() public view returns (uint256 pot){\n        return _pot;\n    }\n\n\n\n    // bet and distribute\n    /*\n    *@dev 베팅과 정답을 체크 한다. 유저는 0.005  ETH를 보내야 하고 , 베팅용 1byte 글자를 보낸다.\n    *큐에 저장된 배팅 정본는 이후 distribute 함수에서 해결된다\n    *@param challenges 유저가 베팅하는 글자\n    *@return 함수가 잘 수행되었는지 확인하는 bool 값\n     */\n    function betAndDistribute (byte challenges) public payable returns (bool result ){\n        bet(challenges);\n\n        distribute();\n        return true;\n    }\n    \n    /*\n    *@dev 베팅을 한다. 유저는 0.005  ETH를 보내야 하고 , 베팅용 1byte 글자를 보낸다.\n    *뷰에 저장된 배팅 정본는 이후 distribute 함수에서 해결된다\n    *@param challenges 유저가 베팅하는 글자\n    *@return 함수가 잘 수행되었는지 확인하는 bool 값\n     */\n\n    // Betting\n    function bet(byte challenges) public payable returns (bool result){\n        // check the proper ether is sent\n\n        require(msg.value==BET_AMOUNT, \"Not enough ETH\");\n\n        // push bet to the queue\n\n        require(pushBet(challenges), \"Fail to add a new Bet Info\");\n        // emit event\n        emit BET(_tail -1, msg.sender, msg.value, challenges, block.number+ BET_BLOCK_INTERVAL);\n\n        return true;\n    }\n        //save the bet to the queue\n\n\n\n    // Distribute 검증\n\n\n\n  /*\n    *@dev 베팅 결과값으 ㄹ확인하고 팟머니를 분배한다\n    *정답 실패 : 팟머니 축적, 정답 맞춤 : 팟머니 획득, 한글자 맞추거나 정답을 확인 불가능할 경우 베팅 금액만 돌려받는다\n     */\n    function distribute() public {\n        // head 3 4 5 6 7 8 tail\n        // 3번부터 만들어지고있는 블록 전까지 확인해야한다.\n        // 만약 확인해야하 하는 블럭이 256 이상일때 확인못한 블록의 배팅값은 돌려준다\n        \n        // 현재 블록 변수\n        uint256 cur;\n        uint256 transferAmount;\n        BetInfo memory b;\n        BlockStatus currentBlockStatus;\n        BettingResult currentBettingResult;\n\n        for(cur=_head;cur<_tail;cur++){\n            b=_bets[cur];\n            currentBlockStatus = getBlockStatus(b.answerBlockNumber);\n            // checkable : block.number> answerBlockNumber && block.number -BLOCK_LMIT < answerBlockNumber  확인가능한 경우\n            if(currentBlockStatus==BlockStatus.checkable){\n             \n                bytes32 answerBlockHash = getAnswerBlockHash(b.answerBlockNumber);\n            //  currentBettingResult \n             currentBettingResult=isMatch(b.challenges,answerBlockHash);\n                // 두개다 맞췄을경우 bettor gets pot\n                 if(currentBettingResult==BettingResult.Win){\n                        //transper pot\n                        transferAmount= transferAfterPayingFee(b.bettor,_pot+BET_AMOUNT);\n                        //pot =0\n                        _pot=0;\n                        //emit Win\n                        emit WIN(cur,b.bettor,transferAmount,b.challenges,answerBlockHash[0],b.answerBlockNumber);\n                 }\n\n\n               \n                // 틀릴경우bettor's moeny goes pot\n                if(currentBettingResult==BettingResult.Fail){\n                     //pot = pot+BET_AMOUNT\n                     _pot+=BET_AMOUNT;\n                     //emit Fail\n                     emit FAIL(cur,b.bettor,0,b.challenges,answerBlockHash[0],b.answerBlockNumber);\n                 }\n\n\n                //글자를 하나만 맞출경우  draw\n                if(currentBettingResult==BettingResult.Draw){\n                     //transfer only BET_AMOUNT\n                     transferAmount= transferAfterPayingFee(b.bettor,BET_AMOUNT);\n                     //emit Draw\n                        emit WIN(cur,b.bettor,transferAmount,b.challenges,answerBlockHash[0],b.answerBlockNumber);\n                 }\n\n            }\n            // Not Revealed : block.number <= answerBlockNumber  만들어지고있는 블락일경우\n        if(currentBlockStatus==BlockStatus.NotRevealed){\n                break;\n            }\n            // Block Limit Passed : block.number >=answerBlockNumber + BLOCK_LIMIT\n        if(currentBlockStatus==BlockStatus.BlockLimitPassed){\n                //refund\n                transferAmount=transferAfterPayingFee(b.bettor, BET_AMOUNT);\n                //emit refund\n                emit REFUND(cur,b.bettor, transferAmount,b.challenges, b.answerBlockNumber);\n            }\n            popBet(cur);\n        }\n        _head=cur;\n    }\n\n// 도박에대한 수수료\nfunction transferAfterPayingFee(address payable addr, uint256 amount) internal returns(uint256){\n    uint256 fee = 0;\n    uint256 amountWithoutFee = amount-fee;\n    addr.transfer(amountWithoutFee);\n    owner.transfer(fee);\n\n// 스마트 컨트랙트에서 돈을 전송하는 3가지 방법 \n// call,send,transfer\n// transfer : ether전송 하는데 실패하면 트랜잭션 자체를  fail 시킴\n// send : 보내긴하는데 try catch 사용할수잇다\n//call : 이더 전송 뿐아니라 다른 스마트컨트랙트에 function호출도 가능\n\n\n    return amountWithoutFee;\n}\n\n// 테스트 모드일대 임시로 정답을 지정해주는 메소드\n    function setAnswerForTest(bytes32 answer) public returns (bool result){\n        \n        require(msg.sender ==owner, \"Only owner can set the answer for test mode\");\n\n        answerForTest= answer;\n        return true;\n    }\n\n// 현재 테스트 모드인지 리얼 블록해쉬값을 가져올건지 확인하는 메소드\n    function getAnswerBlockHash(uint256 answerBlockNumber) internal view returns( bytes32 answer){\n        return mode ? blockhash(answerBlockNumber) : answerForTest; \n    }\n\n\n    /*\n    @dev 베팅글자와 정답을 확인한다.\n    @param challenges 베팅 글자\n    @param answer 블록해쉬\n    @return 정답결과\n    */\n\n// 블록 맞춘 상태 \n    function isMatch(byte challenges,bytes32 answer) public pure returns (BettingResult){\n\n        // challenges 0xab\n        // answer 0xab..... 32bytes\n        //  challenges에서 첫번째 글자와 두번째 글자를 추출하고 , answer에서 첫번째 글자와 두번째 글자를 추출하여 비교한다\n\n        byte c1= challenges;\n        byte c2= challenges;\n\n        byte a1=answer[0];\n        byte a2=answer[0];\n\n        // get first number\n        c1=c1>>4;    // 0xab -> 0x0a\n        c1=c1<<4;    //0x0a -> 0xa0\n\n        a1=a1>>4;\n        a1=a1<<4;\n\n        // get second number\n\n        c2=c2<<4;\n        c2=c2>>4;\n\n        a2=a2<<4;\n        a2=a2>>4;\n\n\n        if(a1==c1&&a2==c2){\n            return BettingResult.Win;\n        }\n\n        if(a1==c1 || a2 == c2){\n            return BettingResult.Draw;\n        }\n        return BettingResult.Fail;\n\n    }\n\n// 블록 상태 \n    function getBlockStatus(uint256 answerBlockNumber) internal view returns (BlockStatus){\n        if(block.number> answerBlockNumber && block.number < BLOCK_LIMIT + answerBlockNumber){\n                return BlockStatus.checkable;\n        }\n        if(block.number <= answerBlockNumber){\n                return BlockStatus.NotRevealed;\n        }\n        if(block.number >=answerBlockNumber + BLOCK_LIMIT){\n            return BlockStatus.BlockLimitPassed;\n        }\n       return BlockStatus.BlockLimitPassed;\n    }\n\n        // check the answer\n\n    function getBetInfo(uint256 index) public view returns (uint256 answerBlockNumber, address bettor, byte challenges){\n        BetInfo memory b = _bets[index];\n        answerBlockNumber=b.answerBlockNumber;\n        bettor = b.bettor;\n        challenges= b.challenges;\n    }\n\n    function pushBet(byte challenges) internal returns (bool){\n        BetInfo memory b;\n        //msg.sender는 해당 트랜잭션을 보낸 유저의 어드레스를 받아서 사용할수 있다\n\n\n        b.bettor=msg.sender;  // address  이므로 20byte\n\n        // block.number는 해당 트랜잭션이 들어가는 블록의 넘버를 알수 있다\n        b.answerBlockNumber=block.number + BET_BLOCK_INTERVAL;  //unit256 이므로 32 byte\n\n        b.challenges=challenges;   // byte 타입이므로 1 byte  \n\n        _bets[_tail]=b;\n\n        _tail++;  // 32byte  ==20000gas\n\n\n        return true;\n    }\n\n    function popBet(uint256 index) internal returns (bool){\n        delete _bets[index];\n        return true;\n    }\n}",
  "sourcePath": "/home/ethereum/test_lottery/contracts/Lottery.sol",
  "compiler": {
    "name": "solc",
    "version": "0.5.0+commit.1d4f565a.Emscripten.clang"
  },
  "schemaVersion": "3.0.1",
  "updatedAt": "2020-07-02T13:23:21.322Z",
  "devdoc": {
    "methods": {}
  },
  "userdoc": {
    "methods": {}
  }
}